{"abi":[{"type":"constructor","inputs":[{"name":"eas","type":"address","internalType":"contract IEAS"}],"stateMutability":"nonpayable"},{"type":"receive","stateMutability":"payable"},{"type":"function","name":"allowance","inputs":[{"name":"owner","type":"address","internalType":"address"},{"name":"spender","type":"address","internalType":"address"}],"outputs":[{"name":"","type":"uint256","internalType":"uint256"}],"stateMutability":"view"},{"type":"function","name":"approve","inputs":[{"name":"spender","type":"address","internalType":"address"},{"name":"value","type":"uint256","internalType":"uint256"}],"outputs":[{"name":"","type":"bool","internalType":"bool"}],"stateMutability":"nonpayable"},{"type":"function","name":"attest","inputs":[{"name":"attestation","type":"tuple","internalType":"struct Attestation","components":[{"name":"uid","type":"bytes32","internalType":"bytes32"},{"name":"schema","type":"bytes32","internalType":"bytes32"},{"name":"time","type":"uint64","internalType":"uint64"},{"name":"expirationTime","type":"uint64","internalType":"uint64"},{"name":"revocationTime","type":"uint64","internalType":"uint64"},{"name":"refUID","type":"bytes32","internalType":"bytes32"},{"name":"recipient","type":"address","internalType":"address"},{"name":"attester","type":"address","internalType":"address"},{"name":"revocable","type":"bool","internalType":"bool"},{"name":"data","type":"bytes","internalType":"bytes"}]}],"outputs":[{"name":"","type":"bool","internalType":"bool"}],"stateMutability":"payable"},{"type":"function","name":"balanceOf","inputs":[{"name":"account","type":"address","internalType":"address"}],"outputs":[{"name":"","type":"uint256","internalType":"uint256"}],"stateMutability":"view"},{"type":"function","name":"decimals","inputs":[],"outputs":[{"name":"","type":"uint8","internalType":"uint8"}],"stateMutability":"view"},{"type":"function","name":"getAttestationAtIndex","inputs":[{"name":"index","type":"uint256","internalType":"uint256"}],"outputs":[{"name":"","type":"tuple","internalType":"struct Attestation","components":[{"name":"uid","type":"bytes32","internalType":"bytes32"},{"name":"schema","type":"bytes32","internalType":"bytes32"},{"name":"time","type":"uint64","internalType":"uint64"},{"name":"expirationTime","type":"uint64","internalType":"uint64"},{"name":"revocationTime","type":"uint64","internalType":"uint64"},{"name":"refUID","type":"bytes32","internalType":"bytes32"},{"name":"recipient","type":"address","internalType":"address"},{"name":"attester","type":"address","internalType":"address"},{"name":"revocable","type":"bool","internalType":"bool"},{"name":"data","type":"bytes","internalType":"bytes"}]}],"stateMutability":"view"},{"type":"function","name":"getAttestationCount","inputs":[],"outputs":[{"name":"","type":"uint256","internalType":"uint256"}],"stateMutability":"view"},{"type":"function","name":"isPayable","inputs":[],"outputs":[{"name":"","type":"bool","internalType":"bool"}],"stateMutability":"pure"},{"type":"function","name":"mint","inputs":[{"name":"to","type":"address","internalType":"address"},{"name":"amount","type":"uint256","internalType":"uint256"}],"outputs":[],"stateMutability":"nonpayable"},{"type":"function","name":"multiAttest","inputs":[{"name":"attestations","type":"tuple[]","internalType":"struct Attestation[]","components":[{"name":"uid","type":"bytes32","internalType":"bytes32"},{"name":"schema","type":"bytes32","internalType":"bytes32"},{"name":"time","type":"uint64","internalType":"uint64"},{"name":"expirationTime","type":"uint64","internalType":"uint64"},{"name":"revocationTime","type":"uint64","internalType":"uint64"},{"name":"refUID","type":"bytes32","internalType":"bytes32"},{"name":"recipient","type":"address","internalType":"address"},{"name":"attester","type":"address","internalType":"address"},{"name":"revocable","type":"bool","internalType":"bool"},{"name":"data","type":"bytes","internalType":"bytes"}]},{"name":"values","type":"uint256[]","internalType":"uint256[]"}],"outputs":[{"name":"","type":"bool","internalType":"bool"}],"stateMutability":"payable"},{"type":"function","name":"multiRevoke","inputs":[{"name":"attestations","type":"tuple[]","internalType":"struct Attestation[]","components":[{"name":"uid","type":"bytes32","internalType":"bytes32"},{"name":"schema","type":"bytes32","internalType":"bytes32"},{"name":"time","type":"uint64","internalType":"uint64"},{"name":"expirationTime","type":"uint64","internalType":"uint64"},{"name":"revocationTime","type":"uint64","internalType":"uint64"},{"name":"refUID","type":"bytes32","internalType":"bytes32"},{"name":"recipient","type":"address","internalType":"address"},{"name":"attester","type":"address","internalType":"address"},{"name":"revocable","type":"bool","internalType":"bool"},{"name":"data","type":"bytes","internalType":"bytes"}]},{"name":"values","type":"uint256[]","internalType":"uint256[]"}],"outputs":[{"name":"","type":"bool","internalType":"bool"}],"stateMutability":"payable"},{"type":"function","name":"name","inputs":[],"outputs":[{"name":"","type":"string","internalType":"string"}],"stateMutability":"view"},{"type":"function","name":"owner","inputs":[],"outputs":[{"name":"","type":"address","internalType":"address"}],"stateMutability":"view"},{"type":"function","name":"renounceOwnership","inputs":[],"outputs":[],"stateMutability":"nonpayable"},{"type":"function","name":"revoke","inputs":[{"name":"attestation","type":"tuple","internalType":"struct Attestation","components":[{"name":"uid","type":"bytes32","internalType":"bytes32"},{"name":"schema","type":"bytes32","internalType":"bytes32"},{"name":"time","type":"uint64","internalType":"uint64"},{"name":"expirationTime","type":"uint64","internalType":"uint64"},{"name":"revocationTime","type":"uint64","internalType":"uint64"},{"name":"refUID","type":"bytes32","internalType":"bytes32"},{"name":"recipient","type":"address","internalType":"address"},{"name":"attester","type":"address","internalType":"address"},{"name":"revocable","type":"bool","internalType":"bool"},{"name":"data","type":"bytes","internalType":"bytes"}]}],"outputs":[{"name":"","type":"bool","internalType":"bool"}],"stateMutability":"payable"},{"type":"function","name":"symbol","inputs":[],"outputs":[{"name":"","type":"string","internalType":"string"}],"stateMutability":"view"},{"type":"function","name":"totalSupply","inputs":[],"outputs":[{"name":"","type":"uint256","internalType":"uint256"}],"stateMutability":"view"},{"type":"function","name":"transfer","inputs":[{"name":"to","type":"address","internalType":"address"},{"name":"value","type":"uint256","internalType":"uint256"}],"outputs":[{"name":"","type":"bool","internalType":"bool"}],"stateMutability":"nonpayable"},{"type":"function","name":"transferFrom","inputs":[{"name":"from","type":"address","internalType":"address"},{"name":"to","type":"address","internalType":"address"},{"name":"value","type":"uint256","internalType":"uint256"}],"outputs":[{"name":"","type":"bool","internalType":"bool"}],"stateMutability":"nonpayable"},{"type":"function","name":"transferOwnership","inputs":[{"name":"newOwner","type":"address","internalType":"address"}],"outputs":[],"stateMutability":"nonpayable"},{"type":"function","name":"version","inputs":[],"outputs":[{"name":"","type":"string","internalType":"string"}],"stateMutability":"view"},{"type":"event","name":"Approval","inputs":[{"name":"owner","type":"address","indexed":true,"internalType":"address"},{"name":"spender","type":"address","indexed":true,"internalType":"address"},{"name":"value","type":"uint256","indexed":false,"internalType":"uint256"}],"anonymous":false},{"type":"event","name":"OwnershipTransferred","inputs":[{"name":"previousOwner","type":"address","indexed":true,"internalType":"address"},{"name":"newOwner","type":"address","indexed":true,"internalType":"address"}],"anonymous":false},{"type":"event","name":"Transfer","inputs":[{"name":"from","type":"address","indexed":true,"internalType":"address"},{"name":"to","type":"address","indexed":true,"internalType":"address"},{"name":"value","type":"uint256","indexed":false,"internalType":"uint256"}],"anonymous":false},{"type":"error","name":"AccessDenied","inputs":[]},{"type":"error","name":"ERC20InsufficientAllowance","inputs":[{"name":"spender","type":"address","internalType":"address"},{"name":"allowance","type":"uint256","internalType":"uint256"},{"name":"needed","type":"uint256","internalType":"uint256"}]},{"type":"error","name":"ERC20InsufficientBalance","inputs":[{"name":"sender","type":"address","internalType":"address"},{"name":"balance","type":"uint256","internalType":"uint256"},{"name":"needed","type":"uint256","internalType":"uint256"}]},{"type":"error","name":"ERC20InvalidApprover","inputs":[{"name":"approver","type":"address","internalType":"address"}]},{"type":"error","name":"ERC20InvalidReceiver","inputs":[{"name":"receiver","type":"address","internalType":"address"}]},{"type":"error","name":"ERC20InvalidSender","inputs":[{"name":"sender","type":"address","internalType":"address"}]},{"type":"error","name":"ERC20InvalidSpender","inputs":[{"name":"spender","type":"address","internalType":"address"}]},{"type":"error","name":"InsufficientValue","inputs":[]},{"type":"error","name":"InvalidEAS","inputs":[]},{"type":"error","name":"InvalidLength","inputs":[]},{"type":"error","name":"NotPayable","inputs":[]},{"type":"error","name":"OwnableInvalidOwner","inputs":[{"name":"owner","type":"address","internalType":"address"}]},{"type":"error","name":"OwnableUnauthorizedAccount","inputs":[{"name":"account","type":"address","internalType":"address"}]}],"bytecode":{"object":"0x610100604052348015610010575f5ffd5b50604051612ba9380380612ba983398181016040528101906100329190610334565b80600160045f336040518060400160405280601581526020017f5468654775696c644163746976697479546f6b656e00000000000000000000008152506040518060400160405280600381526020017f544741000000000000000000000000000000000000000000000000000000000081525081600390816100b4919061059c565b5080600490816100c4919061059c565b5050505f73ffffffffffffffffffffffffffffffffffffffff168173ffffffffffffffffffffffffffffffffffffffff1603610137575f6040517f1e4fbdf700000000000000000000000000000000000000000000000000000000815260040161012e919061067a565b60405180910390fd5b6101468161020260201b60201c565b5082608081815250508160a081815250508060c081815250505050505f73ffffffffffffffffffffffffffffffffffffffff168173ffffffffffffffffffffffffffffffffffffffff16036101c7576040517f83780ffe00000000000000000000000000000000000000000000000000000000815260040160405180910390fd5b8073ffffffffffffffffffffffffffffffffffffffff1660e08173ffffffffffffffffffffffffffffffffffffffff16815250505050610693565b5f60055f9054906101000a900473ffffffffffffffffffffffffffffffffffffffff1690508160055f6101000a81548173ffffffffffffffffffffffffffffffffffffffff021916908373ffffffffffffffffffffffffffffffffffffffff1602179055508173ffffffffffffffffffffffffffffffffffffffff168173ffffffffffffffffffffffffffffffffffffffff167f8be0079c531659141344cd1fd0a4f28419497f9722a3daafe3b4186f6b6457e060405160405180910390a35050565b5f5ffd5b5f73ffffffffffffffffffffffffffffffffffffffff82169050919050565b5f6102f2826102c9565b9050919050565b5f610303826102e8565b9050919050565b610313816102f9565b811461031d575f5ffd5b50565b5f8151905061032e8161030a565b92915050565b5f60208284031215610349576103486102c5565b5b5f61035684828501610320565b91505092915050565b5f81519050919050565b7f4e487b71000000000000000000000000000000000000000000000000000000005f52604160045260245ffd5b7f4e487b71000000000000000000000000000000000000000000000000000000005f52602260045260245ffd5b5f60028204905060018216806103da57607f821691505b6020821081036103ed576103ec610396565b5b50919050565b5f819050815f5260205f209050919050565b5f6020601f8301049050919050565b5f82821b905092915050565b5f6008830261044f7fffffffffffffffffffffffffffffffffffffffffffffffffffffffffffffffff82610414565b6104598683610414565b95508019841693508086168417925050509392505050565b5f819050919050565b5f819050919050565b5f61049d61049861049384610471565b61047a565b610471565b9050919050565b5f819050919050565b6104b683610483565b6104ca6104c2826104a4565b848454610420565b825550505050565b5f5f905090565b6104e16104d2565b6104ec8184846104ad565b505050565b5b8181101561050f576105045f826104d9565b6001810190506104f2565b5050565b601f82111561055457610525816103f3565b61052e84610405565b8101602085101561053d578190505b61055161054985610405565b8301826104f1565b50505b505050565b5f82821c905092915050565b5f6105745f1984600802610559565b1980831691505092915050565b5f61058c8383610565565b9150826002028217905092915050565b6105a58261035f565b67ffffffffffffffff8111156105be576105bd610369565b5b6105c882546103c3565b6105d3828285610513565b5f60209050601f831160018114610604575f84156105f2578287015190505b6105fc8582610581565b865550610663565b601f198416610612866103f3565b5f5b8281101561063957848901518255600182019150602085019450602081019050610614565b868310156106565784890151610652601f891682610565565b8355505b6001600288020188555050505b505050505050565b610674816102e8565b82525050565b5f60208201905061068d5f83018461066b565b92915050565b60805160a05160c05160e0516124dc6106cd5f395f8181610a51015261109a01525f6106bb01525f61069201525f61066901526124dc5ff3fe60806040526004361061012d575f3560e01c80638da5cb5b116100aa578063a9059cbb1161006e578063a9059cbb1461042a578063ce46e04614610466578063dd62ed3e14610490578063e49617e1146104cc578063e60c3505146104fc578063f2fde38b1461052c57610172565b80638da5cb5b1461034057806391db0b7e1461036a57806395d89b411461039a578063962ea8ae146103c45780639df97fd7146103ee57610172565b806340c10f19116100f157806340c10f191461026c57806354fd4d501461029457806370a08231146102be578063715018a6146102fa57806388e5b2d91461031057610172565b806306fdde0314610176578063095ea7b3146101a057806318160ddd146101dc57806323b872dd14610206578063313ce5671461024257610172565b366101725761013a610554565b610170576040517f1574f9f300000000000000000000000000000000000000000000000000000000815260040160405180910390fd5b005b5f5ffd5b348015610181575f5ffd5b5061018a61055b565b60405161019791906117d8565b60405180910390f35b3480156101ab575f5ffd5b506101c660048036038101906101c19190611896565b6105eb565b6040516101d391906118ee565b60405180910390f35b3480156101e7575f5ffd5b506101f061060d565b6040516101fd9190611916565b60405180910390f35b348015610211575f5ffd5b5061022c6004803603810190610227919061192f565b610616565b60405161023991906118ee565b60405180910390f35b34801561024d575f5ffd5b50610256610644565b604051610263919061199a565b60405180910390f35b348015610277575f5ffd5b50610292600480360381019061028d9190611896565b61064c565b005b34801561029f575f5ffd5b506102a8610662565b6040516102b591906117d8565b60405180910390f35b3480156102c9575f5ffd5b506102e460048036038101906102df91906119b3565b610705565b6040516102f19190611916565b60405180910390f35b348015610305575f5ffd5b5061030e61074a565b005b61032a60048036038101906103259190611a94565b61075d565b60405161033791906118ee565b60405180910390f35b34801561034b575f5ffd5b50610354610870565b6040516103619190611b21565b60405180910390f35b610384600480360381019061037f9190611a94565b610898565b60405161039191906118ee565b60405180910390f35b3480156103a5575f5ffd5b506103ae6109ab565b6040516103bb91906117d8565b60405180910390f35b3480156103cf575f5ffd5b506103d8610a3b565b6040516103e59190611916565b60405180910390f35b3480156103f9575f5ffd5b50610414600480360381019061040f9190611b3a565b610a47565b6040516104219190611ce6565b60405180910390f35b348015610435575f5ffd5b50610450600480360381019061044b9190611896565b610b0d565b60405161045d91906118ee565b60405180910390f35b348015610471575f5ffd5b5061047a610554565b60405161048791906118ee565b60405180910390f35b34801561049b575f5ffd5b506104b660048036038101906104b19190611d06565b610b2f565b6040516104c39190611916565b60405180910390f35b6104e660048036038101906104e19190611d67565b610bb1565b6040516104f391906118ee565b60405180910390f35b61051660048036038101906105119190611d67565b610bcb565b60405161052391906118ee565b60405180910390f35b348015610537575f5ffd5b50610552600480360381019061054d91906119b3565b610be5565b005b5f5f905090565b60606003805461056a90611ddb565b80601f016020809104026020016040519081016040528092919081815260200182805461059690611ddb565b80156105e15780601f106105b8576101008083540402835291602001916105e1565b820191905f5260205f20905b8154815290600101906020018083116105c457829003601f168201915b5050505050905090565b5f5f6105f5610c69565b9050610602818585610c70565b600191505092915050565b5f600254905090565b5f5f610620610c69565b905061062d858285610c82565b610638858585610d15565b60019150509392505050565b5f6012905090565b610654610e05565b61065e8282610e8c565b5050565b606061068d7f0000000000000000000000000000000000000000000000000000000000000000610f0b565b6106b67f0000000000000000000000000000000000000000000000000000000000000000610f0b565b6106df7f0000000000000000000000000000000000000000000000000000000000000000610f0b565b6040516020016106f193929190611e8f565b604051602081830303815290604052905090565b5f5f5f8373ffffffffffffffffffffffffffffffffffffffff1673ffffffffffffffffffffffffffffffffffffffff1681526020019081526020015f20549050919050565b610752610e05565b61075b5f610fd5565b565b5f610766611098565b5f8585905090508383905081146107a9576040517f947d5a8400000000000000000000000000000000000000000000000000000000815260040160405180910390fd5b5f3490505f5f90505b82811015610860575f8686838181106107ce576107cd611ed5565b5b90506020020135905082811115610811576040517f1101129400000000000000000000000000000000000000000000000000000000815260040160405180910390fd5b61083f89898481811061082757610826611ed5565b5b90506020028101906108399190611f06565b8261111f565b61084f575f945050505050610868565b8083039250508060010190506107b2565b506001925050505b949350505050565b5f60055f9054906101000a900473ffffffffffffffffffffffffffffffffffffffff16905090565b5f6108a1611098565b5f8585905090508383905081146108e4576040517f947d5a8400000000000000000000000000000000000000000000000000000000815260040160405180910390fd5b5f3490505f5f90505b8281101561099b575f86868381811061090957610908611ed5565b5b9050602002013590508281111561094c576040517f1101129400000000000000000000000000000000000000000000000000000000815260040160405180910390fd5b61097a89898481811061096257610961611ed5565b5b90506020028101906109749190611f06565b8261112a565b61098a575f9450505050506109a3565b8083039250508060010190506108ed565b506001925050505b949350505050565b6060600480546109ba90611ddb565b80601f01602080910402602001604051908101604052809291908181526020018280546109e690611ddb565b8015610a315780601f10610a0857610100808354040283529160200191610a31565b820191905f5260205f20905b815481529060010190602001808311610a1457829003601f168201915b5050505050905090565b5f600680549050905090565b610a4f6116d2565b7f000000000000000000000000000000000000000000000000000000000000000073ffffffffffffffffffffffffffffffffffffffff1663a3112a6460068481548110610a9f57610a9e611ed5565b5b905f5260205f2001546040518263ffffffff1660e01b8152600401610ac49190611f3d565b5f60405180830381865afa158015610ade573d5f5f3e3d5ffd5b505050506040513d5f823e3d601f19601f82011682018060405250810190610b069190612219565b9050919050565b5f5f610b17610c69565b9050610b24818585610d15565b600191505092915050565b5f60015f8473ffffffffffffffffffffffffffffffffffffffff1673ffffffffffffffffffffffffffffffffffffffff1681526020019081526020015f205f8373ffffffffffffffffffffffffffffffffffffffff1673ffffffffffffffffffffffffffffffffffffffff1681526020019081526020015f2054905092915050565b5f610bba611098565b610bc4823461111f565b9050919050565b5f610bd4611098565b610bde823461112a565b9050919050565b610bed610e05565b5f73ffffffffffffffffffffffffffffffffffffffff168173ffffffffffffffffffffffffffffffffffffffff1603610c5d575f6040517f1e4fbdf7000000000000000000000000000000000000000000000000000000008152600401610c549190611b21565b60405180910390fd5b610c6681610fd5565b50565b5f33905090565b610c7d8383836001611199565b505050565b5f610c8d8484610b2f565b90507fffffffffffffffffffffffffffffffffffffffffffffffffffffffffffffffff811015610d0f5781811015610d00578281836040517ffb8f41b2000000000000000000000000000000000000000000000000000000008152600401610cf793929190612260565b60405180910390fd5b610d0e84848484035f611199565b5b50505050565b5f73ffffffffffffffffffffffffffffffffffffffff168373ffffffffffffffffffffffffffffffffffffffff1603610d85575f6040517f96c6fd1e000000000000000000000000000000000000000000000000000000008152600401610d7c9190611b21565b60405180910390fd5b5f73ffffffffffffffffffffffffffffffffffffffff168273ffffffffffffffffffffffffffffffffffffffff1603610df5575f6040517fec442f05000000000000000000000000000000000000000000000000000000008152600401610dec9190611b21565b60405180910390fd5b610e00838383611368565b505050565b610e0d610c69565b73ffffffffffffffffffffffffffffffffffffffff16610e2b610870565b73ffffffffffffffffffffffffffffffffffffffff1614610e8a57610e4e610c69565b6040517f118cdaa7000000000000000000000000000000000000000000000000000000008152600401610e819190611b21565b60405180910390fd5b565b5f73ffffffffffffffffffffffffffffffffffffffff168273ffffffffffffffffffffffffffffffffffffffff1603610efc575f6040517fec442f05000000000000000000000000000000000000000000000000000000008152600401610ef39190611b21565b60405180910390fd5b610f075f8383611368565b5050565b60605f6001610f1984611581565b0190505f8167ffffffffffffffff811115610f3757610f36611f5a565b5b6040519080825280601f01601f191660200182016040528015610f695781602001600182028036833780820191505090505b5090505f82602083010190505b600115610fca578080600190039150507f3031323334353637383961626364656600000000000000000000000000000000600a86061a8153600a8581610fbf57610fbe612295565b5b0494505f8503610f76575b819350505050919050565b5f60055f9054906101000a900473ffffffffffffffffffffffffffffffffffffffff1690508160055f6101000a81548173ffffffffffffffffffffffffffffffffffffffff021916908373ffffffffffffffffffffffffffffffffffffffff1602179055508173ffffffffffffffffffffffffffffffffffffffff168173ffffffffffffffffffffffffffffffffffffffff167f8be0079c531659141344cd1fd0a4f28419497f9722a3daafe3b4186f6b6457e060405160405180910390a35050565b7f000000000000000000000000000000000000000000000000000000000000000073ffffffffffffffffffffffffffffffffffffffff163373ffffffffffffffffffffffffffffffffffffffff161461111d576040517f4ca8886700000000000000000000000000000000000000000000000000000000815260040160405180910390fd5b565b5f6001905092915050565b5f6111668360e001602081019061114191906119b3565b611149610644565b600a611155919061241e565b600a6111619190612468565b610e8c565b6006835f0135908060018154018082558091505060019003905f5260205f20015f90919091909150556001905092915050565b5f73ffffffffffffffffffffffffffffffffffffffff168473ffffffffffffffffffffffffffffffffffffffff1603611209575f6040517fe602df050000000000000000000000000000000000000000000000000000000081526004016112009190611b21565b60405180910390fd5b5f73ffffffffffffffffffffffffffffffffffffffff168373ffffffffffffffffffffffffffffffffffffffff1603611279575f6040517f94280d620000000000000000000000000000000000000000000000000000000081526004016112709190611b21565b60405180910390fd5b8160015f8673ffffffffffffffffffffffffffffffffffffffff1673ffffffffffffffffffffffffffffffffffffffff1681526020019081526020015f205f8573ffffffffffffffffffffffffffffffffffffffff1673ffffffffffffffffffffffffffffffffffffffff1681526020019081526020015f20819055508015611362578273ffffffffffffffffffffffffffffffffffffffff168473ffffffffffffffffffffffffffffffffffffffff167f8c5be1e5ebec7d5bd14f71427d1e84f3dd0314c0f7b2291e5b200ac8c7c3b925846040516113599190611916565b60405180910390a35b50505050565b5f73ffffffffffffffffffffffffffffffffffffffff168373ffffffffffffffffffffffffffffffffffffffff16036113b8578060025f8282546113ac91906124a9565b92505081905550611486565b5f5f5f8573ffffffffffffffffffffffffffffffffffffffff1673ffffffffffffffffffffffffffffffffffffffff1681526020019081526020015f2054905081811015611441578381836040517fe450d38c00000000000000000000000000000000000000000000000000000000815260040161143893929190612260565b60405180910390fd5b8181035f5f8673ffffffffffffffffffffffffffffffffffffffff1673ffffffffffffffffffffffffffffffffffffffff1681526020019081526020015f2081905550505b5f73ffffffffffffffffffffffffffffffffffffffff168273ffffffffffffffffffffffffffffffffffffffff16036114cd578060025f8282540392505081905550611517565b805f5f8473ffffffffffffffffffffffffffffffffffffffff1673ffffffffffffffffffffffffffffffffffffffff1681526020019081526020015f205f82825401925050819055505b8173ffffffffffffffffffffffffffffffffffffffff168373ffffffffffffffffffffffffffffffffffffffff167fddf252ad1be2c89b69c2b068fc378daa952ba7f163c4a11628f55a4df523b3ef836040516115749190611916565b60405180910390a3505050565b5f5f5f90507a184f03e93ff9f4daa797ed6e38ed64bf6a1f01000000000000000083106115dd577a184f03e93ff9f4daa797ed6e38ed64bf6a1f01000000000000000083816115d3576115d2612295565b5b0492506040810190505b6d04ee2d6d415b85acef8100000000831061161a576d04ee2d6d415b85acef810000000083816116105761160f612295565b5b0492506020810190505b662386f26fc10000831061164957662386f26fc10000838161163f5761163e612295565b5b0492506010810190505b6305f5e1008310611672576305f5e100838161166857611667612295565b5b0492506008810190505b612710831061169757612710838161168d5761168c612295565b5b0492506004810190505b606483106116ba57606483816116b0576116af612295565b5b0492506002810190505b600a83106116c9576001810190505b80915050919050565b6040518061014001604052805f81526020015f81526020015f67ffffffffffffffff1681526020015f67ffffffffffffffff1681526020015f67ffffffffffffffff1681526020015f81526020015f73ffffffffffffffffffffffffffffffffffffffff1681526020015f73ffffffffffffffffffffffffffffffffffffffff1681526020015f15158152602001606081525090565b5f81519050919050565b5f82825260208201905092915050565b8281835e5f83830152505050565b5f601f19601f8301169050919050565b5f6117aa82611768565b6117b48185611772565b93506117c4818560208601611782565b6117cd81611790565b840191505092915050565b5f6020820190508181035f8301526117f081846117a0565b905092915050565b5f604051905090565b5f5ffd5b5f5ffd5b5f73ffffffffffffffffffffffffffffffffffffffff82169050919050565b5f61183282611809565b9050919050565b61184281611828565b811461184c575f5ffd5b50565b5f8135905061185d81611839565b92915050565b5f819050919050565b61187581611863565b811461187f575f5ffd5b50565b5f813590506118908161186c565b92915050565b5f5f604083850312156118ac576118ab611801565b5b5f6118b98582860161184f565b92505060206118ca85828601611882565b9150509250929050565b5f8115159050919050565b6118e8816118d4565b82525050565b5f6020820190506119015f8301846118df565b92915050565b61191081611863565b82525050565b5f6020820190506119295f830184611907565b92915050565b5f5f5f6060848603121561194657611945611801565b5b5f6119538682870161184f565b93505060206119648682870161184f565b925050604061197586828701611882565b9150509250925092565b5f60ff82169050919050565b6119948161197f565b82525050565b5f6020820190506119ad5f83018461198b565b92915050565b5f602082840312156119c8576119c7611801565b5b5f6119d58482850161184f565b91505092915050565b5f5ffd5b5f5ffd5b5f5ffd5b5f5f83601f8401126119ff576119fe6119de565b5b8235905067ffffffffffffffff811115611a1c57611a1b6119e2565b5b602083019150836020820283011115611a3857611a376119e6565b5b9250929050565b5f5f83601f840112611a5457611a536119de565b5b8235905067ffffffffffffffff811115611a7157611a706119e2565b5b602083019150836020820283011115611a8d57611a8c6119e6565b5b9250929050565b5f5f5f5f60408587031215611aac57611aab611801565b5b5f85013567ffffffffffffffff811115611ac957611ac8611805565b5b611ad5878288016119ea565b9450945050602085013567ffffffffffffffff811115611af857611af7611805565b5b611b0487828801611a3f565b925092505092959194509250565b611b1b81611828565b82525050565b5f602082019050611b345f830184611b12565b92915050565b5f60208284031215611b4f57611b4e611801565b5b5f611b5c84828501611882565b91505092915050565b5f819050919050565b611b7781611b65565b82525050565b5f67ffffffffffffffff82169050919050565b611b9981611b7d565b82525050565b611ba881611828565b82525050565b611bb7816118d4565b82525050565b5f81519050919050565b5f82825260208201905092915050565b5f611be182611bbd565b611beb8185611bc7565b9350611bfb818560208601611782565b611c0481611790565b840191505092915050565b5f61014083015f830151611c255f860182611b6e565b506020830151611c386020860182611b6e565b506040830151611c4b6040860182611b90565b506060830151611c5e6060860182611b90565b506080830151611c716080860182611b90565b5060a0830151611c8460a0860182611b6e565b5060c0830151611c9760c0860182611b9f565b5060e0830151611caa60e0860182611b9f565b50610100830151611cbf610100860182611bae565b50610120830151848203610120860152611cd98282611bd7565b9150508091505092915050565b5f6020820190508181035f830152611cfe8184611c0f565b905092915050565b5f5f60408385031215611d1c57611d1b611801565b5b5f611d298582860161184f565b9250506020611d3a8582860161184f565b9150509250929050565b5f5ffd5b5f6101408284031215611d5e57611d5d611d44565b5b81905092915050565b5f60208284031215611d7c57611d7b611801565b5b5f82013567ffffffffffffffff811115611d9957611d98611805565b5b611da584828501611d48565b91505092915050565b7f4e487b71000000000000000000000000000000000000000000000000000000005f52602260045260245ffd5b5f6002820490506001821680611df257607f821691505b602082108103611e0557611e04611dae565b5b50919050565b5f81905092915050565b5f611e1f82611768565b611e298185611e0b565b9350611e39818560208601611782565b80840191505092915050565b7f2e000000000000000000000000000000000000000000000000000000000000005f82015250565b5f611e79600183611e0b565b9150611e8482611e45565b600182019050919050565b5f611e9a8286611e15565b9150611ea582611e6d565b9150611eb18285611e15565b9150611ebc82611e6d565b9150611ec88284611e15565b9150819050949350505050565b7f4e487b71000000000000000000000000000000000000000000000000000000005f52603260045260245ffd5b5f5ffd5b5f8235600161014003833603038112611f2257611f21611f02565b5b80830191505092915050565b611f3781611b65565b82525050565b5f602082019050611f505f830184611f2e565b92915050565b5f5ffd5b7f4e487b71000000000000000000000000000000000000000000000000000000005f52604160045260245ffd5b611f9082611790565b810181811067ffffffffffffffff82111715611faf57611fae611f5a565b5b80604052505050565b5f611fc16117f8565b9050611fcd8282611f87565b919050565b5f5ffd5b611fdf81611b65565b8114611fe9575f5ffd5b50565b5f81519050611ffa81611fd6565b92915050565b61200981611b7d565b8114612013575f5ffd5b50565b5f8151905061202481612000565b92915050565b5f8151905061203881611839565b92915050565b612047816118d4565b8114612051575f5ffd5b50565b5f815190506120628161203e565b92915050565b5f5ffd5b5f67ffffffffffffffff82111561208657612085611f5a565b5b61208f82611790565b9050602081019050919050565b5f6120ae6120a98461206c565b611fb8565b9050828152602081018484840111156120ca576120c9612068565b5b6120d5848285611782565b509392505050565b5f82601f8301126120f1576120f06119de565b5b815161210184826020860161209c565b91505092915050565b5f61014082840312156121205761211f611f56565b5b61212b610140611fb8565b90505f61213a84828501611fec565b5f83015250602061214d84828501611fec565b602083015250604061216184828501612016565b604083015250606061217584828501612016565b606083015250608061218984828501612016565b60808301525060a061219d84828501611fec565b60a08301525060c06121b18482850161202a565b60c08301525060e06121c58482850161202a565b60e0830152506101006121da84828501612054565b6101008301525061012082015167ffffffffffffffff811115612200576121ff611fd2565b5b61220c848285016120dd565b6101208301525092915050565b5f6020828403121561222e5761222d611801565b5b5f82015167ffffffffffffffff81111561224b5761224a611805565b5b6122578482850161210a565b91505092915050565b5f6060820190506122735f830186611b12565b6122806020830185611907565b61228d6040830184611907565b949350505050565b7f4e487b71000000000000000000000000000000000000000000000000000000005f52601260045260245ffd5b7f4e487b71000000000000000000000000000000000000000000000000000000005f52601160045260245ffd5b5f8160011c9050919050565b5f5f8291508390505b6001851115612344578086048111156123205761231f6122c2565b5b600185161561232f5780820291505b808102905061233d856122ef565b9450612304565b94509492505050565b5f8261235c5760019050612417565b81612369575f9050612417565b816001811461237f5760028114612389576123b8565b6001915050612417565b60ff84111561239b5761239a6122c2565b5b8360020a9150848211156123b2576123b16122c2565b5b50612417565b5060208310610133831016604e8410600b84101617156123ed5782820a9050838111156123e8576123e76122c2565b5b612417565b6123fa84848460016122fb565b92509050818404811115612411576124106122c2565b5b81810290505b9392505050565b5f61242882611863565b91506124338361197f565b92506124607fffffffffffffffffffffffffffffffffffffffffffffffffffffffffffffffff848461234d565b905092915050565b5f61247282611863565b915061247d83611863565b925082820261248b81611863565b915082820484148315176124a2576124a16122c2565b5b5092915050565b5f6124b382611863565b91506124be83611863565b92508282019050808211156124d6576124d56122c2565b5b9291505056","linkReferences":{}},"methodIdentifiers":{"allowance(address,address)":"dd62ed3e","approve(address,uint256)":"095ea7b3","attest((bytes32,bytes32,uint64,uint64,uint64,bytes32,address,address,bool,bytes))":"e60c3505","balanceOf(address)":"70a08231","decimals()":"313ce567","getAttestationAtIndex(uint256)":"9df97fd7","getAttestationCount()":"962ea8ae","isPayable()":"ce46e046","mint(address,uint256)":"40c10f19","multiAttest((bytes32,bytes32,uint64,uint64,uint64,bytes32,address,address,bool,bytes)[],uint256[])":"91db0b7e","multiRevoke((bytes32,bytes32,uint64,uint64,uint64,bytes32,address,address,bool,bytes)[],uint256[])":"88e5b2d9","name()":"06fdde03","owner()":"8da5cb5b","renounceOwnership()":"715018a6","revoke((bytes32,bytes32,uint64,uint64,uint64,bytes32,address,address,bool,bytes))":"e49617e1","symbol()":"95d89b41","totalSupply()":"18160ddd","transfer(address,uint256)":"a9059cbb","transferFrom(address,address,uint256)":"23b872dd","transferOwnership(address)":"f2fde38b","version()":"54fd4d50"},"id":57}